{
  "transactions": [
    {
      "hash": "0x6a720c7d3cde5e89cc8bac1248a50f7d94f0006e4917847735d496cf88a7b503",
      "transactionType": "CREATE2",
      "contractName": "Create2Factory",
      "contractAddress": "0x49077A38d86012739A6fDc5bB50a77C6f2Eb8169",
      "function": null,
      "arguments": null,
      "transaction": {
        "from": "0xCDCc5029896492A95a1Fe4De47b562a8C662A799",
        "to": "0x4e59b44847b379578588920cA78FbF26c0B4956C",
        "gas": "0x3b91a",
        "value": "0x0",
        "input": "0x00000000000000000000000000000000000000000000000000000000000000016080604052348015600f57600080fd5b506102398061001f6000396000f3fe608060405234801561001057600080fd5b50600436106100365760003560e01c806381176c201461003b5780639c4ae2d0146100c1575b600080fd5b6100a5610049366004610148565b8151602092830120604080516001600160f81b0319818601523060601b6bffffffffffffffffffffffff191660218201526035810193909352605580840192909252805180840390920182526075909201909152805191012090565b6040516001600160a01b03909116815260200160405180910390f35b6100a56100cf366004610148565b600080828451602086016000f59050803b6100e957600080fd5b604080516001600160a01b0383168152602081018590527fb03c53b28e78a88e31607a27e1fa48234dce28d5d9d9ec7b295aeb02e674a1e1910160405180910390a19392505050565b634e487b7160e01b600052604160045260246000fd5b6000806040838503121561015b57600080fd5b823567ffffffffffffffff81111561017257600080fd5b8301601f8101851361018357600080fd5b803567ffffffffffffffff81111561019d5761019d610132565b604051601f8201601f19908116603f0116810167ffffffffffffffff811182821017156101cc576101cc610132565b6040528181528282016020018710156101e457600080fd5b816020840160208301376000602092820183015296940135945050505056fea264697066735822122068038d854a3d9a000c7119b207a3982add49f3f8acd089b306b48b24a1160bf264736f6c634300081b0033",
        "nonce": "0x0",
        "chainId": "0xaa37dc"
      },
      "additionalContracts": [],
      "isFixedGasLimit": false
    },
    {
      "hash": "0x9464c9aa2e679df66f8963316503a331d09e52cdb8d4a781caf3a2bb0808b029",
      "transactionType": "CALL",
      "contractName": "Create2Factory",
      "contractAddress": "0x49077A38d86012739A6fDc5bB50a77C6f2Eb8169",
      "function": "deploy(bytes,uint256)",
      "arguments": [
        "0x60a060405234801561001057600080fd5b506040516109e13803806109e183398101604081905261002f91610148565b6001600055338061005a57604051631e4fbdf760e01b81526000600482015260240160405180910390fd5b610063816100da565b506001600160a01b03821661008b5760405163d92e233d60e01b815260040160405180910390fd5b6001600160a01b0381166100b25760405163d92e233d60e01b815260040160405180910390fd5b6001600160a01b03918216608052600280546001600160a01b0319169190921617905561017b565b600180546001600160a01b038381166001600160a01b0319831681179093556040519116919082907f8be0079c531659141344cd1fd0a4f28419497f9722a3daafe3b4186f6b6457e090600090a35050565b80516001600160a01b038116811461014357600080fd5b919050565b6000806040838503121561015b57600080fd5b6101648361012c565b91506101726020840161012c565b90509250929050565b60805161082f6101b26000396000818161010e01528181610235015281816102ee015281816104350152610600015261082f6000f3fe60806040526004361061008a5760003560e01c8063715018a611610059578063715018a61461018a5780638da5cb5b1461019f578063f2fde38b146101bd578063f688bcfb146101dd578063feec756c146101fd57600080fd5b806312065fe0146100d45780633e413bee146100fc578063532deda31461014857806366d003ac1461016a57600080fd5b366100cf5760405162461bcd60e51b815260206004820152601060248201526f115512081b9bdd081858d8d95c1d195960821b60448201526064015b60405180910390fd5b600080fd5b3480156100e057600080fd5b506100e961021d565b6040519081526020015b60405180910390f35b34801561010857600080fd5b506101307f000000000000000000000000000000000000000000000000000000000000000081565b6040516001600160a01b0390911681526020016100f3565b34801561015457600080fd5b50610168610163366004610775565b6102ad565b005b34801561017657600080fd5b50600254610130906001600160a01b031681565b34801561019657600080fd5b5061016861039b565b3480156101ab57600080fd5b506001546001600160a01b0316610130565b3480156101c957600080fd5b506101686101d836600461078e565b6103af565b3480156101e957600080fd5b506101686101f8366004610775565b6103ea565b34801561020957600080fd5b5061016861021836600461078e565b61052c565b6040516370a0823160e01b81523060048201526000907f00000000000000000000000000000000000000000000000000000000000000006001600160a01b0316906370a0823190602401602060405180830381865afa158015610284573d6000803e3d6000fd5b505050506040513d601f19601f820116820180604052508101906102a891906107be565b905090565b6102b56105ad565b806000036102d657604051631f2a200560e01b815260040160405180910390fd5b6040516370a0823160e01b81523060048201526000907f00000000000000000000000000000000000000000000000000000000000000006001600160a01b0316906370a0823190602401602060405180830381865afa15801561033d573d6000803e3d6000fd5b505050506040513d601f19601f8201168201806040525081019061036191906107be565b90508181101561038457604051631e9acf1760e31b815260040160405180910390fd5b61038d826105d7565b506103986001600055565b50565b6103a36106f6565b6103ad6000610723565b565b6103b76106f6565b6001600160a01b0381166103e157604051631e4fbdf760e01b8152600060048201526024016100c6565b61039881610723565b6103f26105ad565b8060000361041357604051631f2a200560e01b815260040160405180910390fd5b6040516323b872dd60e01b8152336004820152306024820152604481018290527f00000000000000000000000000000000000000000000000000000000000000006001600160a01b0316906323b872dd906064016020604051808303816000875af1158015610486573d6000803e3d6000fd5b505050506040513d601f19601f820116820180604052508101906104aa91906107d7565b6104e85760405162461bcd60e51b815260206004820152600f60248201526e151c985b9cd9995c8819985a5b1959608a1b60448201526064016100c6565b6040805182815242602082015233917fdf761661d51ab4147355430c8891e0dc7406b6aece4d2b564ccd87e0baa6dfd9910160405180910390a26103986001600055565b6105346106f6565b6001600160a01b03811661055b5760405163d92e233d60e01b815260040160405180910390fd5b600280546001600160a01b038381166001600160a01b0319831681179093556040519116919082907f62e69886a5df0ba8ffcacbfc1388754e7abd9bde24b036354c561f1acd4e459390600090a35050565b6002600054036105d057604051633ee5aeb560e01b815260040160405180910390fd5b6002600055565b60025460405163a9059cbb60e01b81526001600160a01b039182166004820152602481018390527f00000000000000000000000000000000000000000000000000000000000000009091169063a9059cbb906044016020604051808303816000875af115801561064b573d6000803e3d6000fd5b505050506040513d601f19601f8201168201806040525081019061066f91906107d7565b6106ac5760405162461bcd60e51b815260206004820152600e60248201526d119bdc9dd85c990819985a5b195960921b60448201526064016100c6565b600254604080518381524260208201526001600160a01b03909216917f6724abaf6fdf4516d5dbe87b1ec159ab9534fc9845e91ca38ea6d28648ee76e4910160405180910390a250565b6001546001600160a01b031633146103ad5760405163118cdaa760e01b81523360048201526024016100c6565b600180546001600160a01b038381166001600160a01b0319831681179093556040519116919082907f8be0079c531659141344cd1fd0a4f28419497f9722a3daafe3b4186f6b6457e090600090a35050565b60006020828403121561078757600080fd5b5035919050565b6000602082840312156107a057600080fd5b81356001600160a01b03811681146107b757600080fd5b9392505050565b6000602082840312156107d057600080fd5b5051919050565b6000602082840312156107e957600080fd5b815180151581146107b757600080fdfea26469706673582212206b3b1707f3a520db84f9368b900480e5346700ecc5364bc7670df175ea6bbe0664736f6c634300081b00330000000000000000000000005fd84259d66cd46123540766be93dfe6d43130d7000000000000000000000000f8591fafe75ee95499d0169e2d19142f27de6542",
        "100069924808400823343348630271491188484978497572861422123096552118700454945698"
      ],
      "transaction": {
        "from": "0xCDCc5029896492A95a1Fe4De47b562a8C662A799",
        "to": "0x49077A38d86012739A6fDc5bB50a77C6f2Eb8169",
        "gas": "0xd04ae",
        "value": "0x0",
        "input": "0x9c4ae2d00000000000000000000000000000000000000000000000000000000000000040dd3d91fdfb4258bfb376260d5f7e386e711fed993b2261c50d477df9d0d7a3a20000000000000000000000000000000000000000000000000000000000000a2160a060405234801561001057600080fd5b506040516109e13803806109e183398101604081905261002f91610148565b6001600055338061005a57604051631e4fbdf760e01b81526000600482015260240160405180910390fd5b610063816100da565b506001600160a01b03821661008b5760405163d92e233d60e01b815260040160405180910390fd5b6001600160a01b0381166100b25760405163d92e233d60e01b815260040160405180910390fd5b6001600160a01b03918216608052600280546001600160a01b0319169190921617905561017b565b600180546001600160a01b038381166001600160a01b0319831681179093556040519116919082907f8be0079c531659141344cd1fd0a4f28419497f9722a3daafe3b4186f6b6457e090600090a35050565b80516001600160a01b038116811461014357600080fd5b919050565b6000806040838503121561015b57600080fd5b6101648361012c565b91506101726020840161012c565b90509250929050565b60805161082f6101b26000396000818161010e01528181610235015281816102ee015281816104350152610600015261082f6000f3fe60806040526004361061008a5760003560e01c8063715018a611610059578063715018a61461018a5780638da5cb5b1461019f578063f2fde38b146101bd578063f688bcfb146101dd578063feec756c146101fd57600080fd5b806312065fe0146100d45780633e413bee146100fc578063532deda31461014857806366d003ac1461016a57600080fd5b366100cf5760405162461bcd60e51b815260206004820152601060248201526f115512081b9bdd081858d8d95c1d195960821b60448201526064015b60405180910390fd5b600080fd5b3480156100e057600080fd5b506100e961021d565b6040519081526020015b60405180910390f35b34801561010857600080fd5b506101307f000000000000000000000000000000000000000000000000000000000000000081565b6040516001600160a01b0390911681526020016100f3565b34801561015457600080fd5b50610168610163366004610775565b6102ad565b005b34801561017657600080fd5b50600254610130906001600160a01b031681565b34801561019657600080fd5b5061016861039b565b3480156101ab57600080fd5b506001546001600160a01b0316610130565b3480156101c957600080fd5b506101686101d836600461078e565b6103af565b3480156101e957600080fd5b506101686101f8366004610775565b6103ea565b34801561020957600080fd5b5061016861021836600461078e565b61052c565b6040516370a0823160e01b81523060048201526000907f00000000000000000000000000000000000000000000000000000000000000006001600160a01b0316906370a0823190602401602060405180830381865afa158015610284573d6000803e3d6000fd5b505050506040513d601f19601f820116820180604052508101906102a891906107be565b905090565b6102b56105ad565b806000036102d657604051631f2a200560e01b815260040160405180910390fd5b6040516370a0823160e01b81523060048201526000907f00000000000000000000000000000000000000000000000000000000000000006001600160a01b0316906370a0823190602401602060405180830381865afa15801561033d573d6000803e3d6000fd5b505050506040513d601f19601f8201168201806040525081019061036191906107be565b90508181101561038457604051631e9acf1760e31b815260040160405180910390fd5b61038d826105d7565b506103986001600055565b50565b6103a36106f6565b6103ad6000610723565b565b6103b76106f6565b6001600160a01b0381166103e157604051631e4fbdf760e01b8152600060048201526024016100c6565b61039881610723565b6103f26105ad565b8060000361041357604051631f2a200560e01b815260040160405180910390fd5b6040516323b872dd60e01b8152336004820152306024820152604481018290527f00000000000000000000000000000000000000000000000000000000000000006001600160a01b0316906323b872dd906064016020604051808303816000875af1158015610486573d6000803e3d6000fd5b505050506040513d601f19601f820116820180604052508101906104aa91906107d7565b6104e85760405162461bcd60e51b815260206004820152600f60248201526e151c985b9cd9995c8819985a5b1959608a1b60448201526064016100c6565b6040805182815242602082015233917fdf761661d51ab4147355430c8891e0dc7406b6aece4d2b564ccd87e0baa6dfd9910160405180910390a26103986001600055565b6105346106f6565b6001600160a01b03811661055b5760405163d92e233d60e01b815260040160405180910390fd5b600280546001600160a01b038381166001600160a01b0319831681179093556040519116919082907f62e69886a5df0ba8ffcacbfc1388754e7abd9bde24b036354c561f1acd4e459390600090a35050565b6002600054036105d057604051633ee5aeb560e01b815260040160405180910390fd5b6002600055565b60025460405163a9059cbb60e01b81526001600160a01b039182166004820152602481018390527f00000000000000000000000000000000000000000000000000000000000000009091169063a9059cbb906044016020604051808303816000875af115801561064b573d6000803e3d6000fd5b505050506040513d601f19601f8201168201806040525081019061066f91906107d7565b6106ac5760405162461bcd60e51b815260206004820152600e60248201526d119bdc9dd85c990819985a5b195960921b60448201526064016100c6565b600254604080518381524260208201526001600160a01b03909216917f6724abaf6fdf4516d5dbe87b1ec159ab9534fc9845e91ca38ea6d28648ee76e4910160405180910390a250565b6001546001600160a01b031633146103ad5760405163118cdaa760e01b81523360048201526024016100c6565b600180546001600160a01b038381166001600160a01b0319831681179093556040519116919082907f8be0079c531659141344cd1fd0a4f28419497f9722a3daafe3b4186f6b6457e090600090a35050565b60006020828403121561078757600080fd5b5035919050565b6000602082840312156107a057600080fd5b81356001600160a01b03811681146107b757600080fd5b9392505050565b6000602082840312156107d057600080fd5b5051919050565b6000602082840312156107e957600080fd5b815180151581146107b757600080fdfea26469706673582212206b3b1707f3a520db84f9368b900480e5346700ecc5364bc7670df175ea6bbe0664736f6c634300081b00330000000000000000000000005fd84259d66cd46123540766be93dfe6d43130d7000000000000000000000000f8591fafe75ee95499d0169e2d19142f27de654200000000000000000000000000000000000000000000000000000000000000",
        "nonce": "0x1",
        "chainId": "0xaa37dc"
      },
      "additionalContracts": [],
      "isFixedGasLimit": false
    }
  ],
  "receipts": [
    {
      "status": "0x1",
      "cumulativeGasUsed": "0x4b4005",
      "logs": [],
      "logsBloom": "0x00000000000000000000000000000000000000000000000000000000000000000000000000000000000000000000000000000000000000000000000000000000000000000000000000000000000000000000000000000000000000000000000000000000000000000000000000000000000000000000000000000000000000000000000000000000000000000000000000000000000000000000000000000000000000000000000000000000000000000000000000000000000000000000000000000000000000000000000000000000000000000000000000000000000000000000000000000000000000000000000000000000000000000000000000000000",
      "type": "0x2",
      "transactionHash": "0x6a720c7d3cde5e89cc8bac1248a50f7d94f0006e4917847735d496cf88a7b503",
      "transactionIndex": "0x9",
      "blockHash": "0xf2c1d024820ec62d9d43db710ed6f649c41c78d33630d7fc779d0b0f09c5906c",
      "blockNumber": "0x1b8c2e5",
      "gasUsed": "0x2b22e",
      "effectiveGasPrice": "0x18975",
      "from": "0xCDCc5029896492A95a1Fe4De47b562a8C662A799",
      "to": "0x4e59b44847b379578588920cA78FbF26c0B4956C",
      "contractAddress": null,
      "l1BaseFeeScalar": "0x1db0",
      "l1BlobBaseFee": "0x1",
      "l1BlobBaseFeeScalar": "0xd2730",
      "l1Fee": "0x2a8b315",
      "l1GasPrice": "0xb5243",
      "l1GasUsed": "0x1ee7"
    },
    {
      "status": "0x1",
      "cumulativeGasUsed": "0x54276b",
      "logs": [
        {
          "address": "0x3383436BE8eeB777b5478e5a8AB7A9cD7E663900",
          "topics": [
            "0x8be0079c531659141344cd1fd0a4f28419497f9722a3daafe3b4186f6b6457e0",
            "0x0000000000000000000000000000000000000000000000000000000000000000",
            "0x00000000000000000000000049077a38d86012739a6fdc5bb50a77c6f2eb8169"
          ],
          "data": "0x",
          "blockHash": "0xf2c1d024820ec62d9d43db710ed6f649c41c78d33630d7fc779d0b0f09c5906c",
          "blockNumber": "0x1b8c2e5",
          "blockTimestamp": "0x68486176",
          "transactionHash": "0x9464c9aa2e679df66f8963316503a331d09e52cdb8d4a781caf3a2bb0808b029",
          "transactionIndex": "0xa",
          "logIndex": "0x36",
          "removed": false
        },
        {
          "address": "0x49077A38d86012739A6fDc5bB50a77C6f2Eb8169",
          "topics": [
            "0xb03c53b28e78a88e31607a27e1fa48234dce28d5d9d9ec7b295aeb02e674a1e1"
          ],
          "data": "0x0000000000000000000000003383436be8eeb777b5478e5a8ab7a9cd7e663900dd3d91fdfb4258bfb376260d5f7e386e711fed993b2261c50d477df9d0d7a3a2",
          "blockHash": "0xf2c1d024820ec62d9d43db710ed6f649c41c78d33630d7fc779d0b0f09c5906c",
          "blockNumber": "0x1b8c2e5",
          "blockTimestamp": "0x68486176",
          "transactionHash": "0x9464c9aa2e679df66f8963316503a331d09e52cdb8d4a781caf3a2bb0808b029",
          "transactionIndex": "0xa",
          "logIndex": "0x37",
          "removed": false
        }
      ],
      "logsBloom": "0x00000000000000002000000000000000000000000000000000800000000000000000020000000000000000000000000000000000080000000000000000000000000000000000000000000000000000000001000000000000000000000000002000000000020080000000000000000800000000000000000000000000000000400000000000000000000000000000000000000208000000000000000000000000000000000000000000000000000000000000000000000000000000000000000000000000000000100000000400000000000000000020000000000000000020000000000000000000000000800000000000000000000000000800000000000000",
      "type": "0x2",
      "transactionHash": "0x9464c9aa2e679df66f8963316503a331d09e52cdb8d4a781caf3a2bb0808b029",
      "transactionIndex": "0xa",
      "blockHash": "0xf2c1d024820ec62d9d43db710ed6f649c41c78d33630d7fc779d0b0f09c5906c",
      "blockNumber": "0x1b8c2e5",
      "gasUsed": "0x8e766",
      "effectiveGasPrice": "0x18975",
      "from": "0xCDCc5029896492A95a1Fe4De47b562a8C662A799",
      "to": "0x49077A38d86012739A6fDc5bB50a77C6f2Eb8169",
      "contractAddress": null,
      "l1BaseFeeScalar": "0x1db0",
      "l1BlobBaseFee": "0x1",
      "l1BlobBaseFeeScalar": "0xd2730",
      "l1Fee": "0x796da24",
      "l1GasPrice": "0xb5243",
      "l1GasUsed": "0x5834"
    }
  ],
  "libraries": [],
  "pending": [],
  "returns": {},
  "timestamp": 1749574006,
  "chain": 11155420,
  "commit": "ee3ba73"
}