{
  "transactions": [
    {
      "hash": "0xda88baa7993dae8f400b58a851084eb6eb7772b57b8dfd51cbc6c0849f65cb70",
      "transactionType": "CALL",
      "contractName": null,
      "contractAddress": "0x75faf114eafb1BDbe2F0316DF893fd58CE46AA4d",
      "function": "approve(address,uint256)",
      "arguments": [
        "0xe00e46e0061bF52c503ef7189fb9499ab54e31c8",
        "2000000"
      ],
      "transaction": {
        "from": "0xCDCc5029896492A95a1Fe4De47b562a8C662A799",
        "to": "0x75faf114eafb1BDbe2F0316DF893fd58CE46AA4d",
        "gas": "0x11d98",
        "value": "0x0",
        "input": "0x095ea7b3000000000000000000000000e00e46e0061bf52c503ef7189fb9499ab54e31c800000000000000000000000000000000000000000000000000000000001e8480",
        "nonce": "0x6",
        "chainId": "0x66eee"
      },
      "additionalContracts": [],
      "isFixedGasLimit": false
    },
    {
      "hash": "0xbf1d5b2ca5ca0996ac192e824a5e6b1ec0def7a123d731d4575c186b3d9822a3",
      "transactionType": "CALL",
      "contractName": null,
      "contractAddress": "0xe00e46e0061bF52c503ef7189fb9499ab54e31c8",
      "function": "depositUSDC(uint256)",
      "arguments": [
        "2000000"
      ],
      "transaction": {
        "from": "0xCDCc5029896492A95a1Fe4De47b562a8C662A799",
        "to": "0xe00e46e0061bF52c503ef7189fb9499ab54e31c8",
        "gas": "0x18639",
        "value": "0x0",
        "input": "0xf688bcfb00000000000000000000000000000000000000000000000000000000001e8480",
        "nonce": "0x7",
        "chainId": "0x66eee"
      },
      "additionalContracts": [],
      "isFixedGasLimit": false
    }
  ],
  "receipts": [
    {
      "status": "0x1",
      "cumulativeGasUsed": "0x78649",
      "logs": [
        {
          "address": "0x75faf114eafb1BDbe2F0316DF893fd58CE46AA4d",
          "topics": [
            "0x8c5be1e5ebec7d5bd14f71427d1e84f3dd0314c0f7b2291e5b200ac8c7c3b925",
            "0x000000000000000000000000cdcc5029896492a95a1fe4de47b562a8c662a799",
            "0x000000000000000000000000e00e46e0061bf52c503ef7189fb9499ab54e31c8"
          ],
          "data": "0x00000000000000000000000000000000000000000000000000000000001e8480",
          "blockHash": "0x74b9580f26e111e96df28f326e00859ef9a51bfcc14e2871c06cd0b4a855ec42",
          "blockNumber": "0x9acf414",
          "transactionHash": "0xda88baa7993dae8f400b58a851084eb6eb7772b57b8dfd51cbc6c0849f65cb70",
          "transactionIndex": "0x6",
          "logIndex": "0xd",
          "removed": false
        }
      ],
      "logsBloom": "0x00000000040000000000000000000000000000000000000000000000000000000000080000000000000000000000000000000000000000000000000000200000800000000000000000000000000000000000000000000001000000000000000000000000000000000000000000000000000000000000000000000000000000000000000000000000000000000000000000000000000000000000000000000000020000000000000000000000000000000000000000000001000000000000000000000000000000000000000000000000000000000000000000000000000000000010000000000000000000000000001000000000000000000100000001000004",
      "type": "0x2",
      "transactionHash": "0xda88baa7993dae8f400b58a851084eb6eb7772b57b8dfd51cbc6c0849f65cb70",
      "transactionIndex": "0x6",
      "blockHash": "0x74b9580f26e111e96df28f326e00859ef9a51bfcc14e2871c06cd0b4a855ec42",
      "blockNumber": "0x9acf414",
      "gasUsed": "0xd88d",
      "effectiveGasPrice": "0x5f5e100",
      "from": "0xCDCc5029896492A95a1Fe4De47b562a8C662A799",
      "to": "0x75faf114eafb1BDbe2F0316DF893fd58CE46AA4d",
      "contractAddress": null,
      "gasUsedForL1": "0x0",
      "l1BlockNumber": "0x820c3e",
      "timeboosted": false
    },
    {
      "status": "0x1",
      "cumulativeGasUsed": "0xc9e09",
      "logs": [
        {
          "address": "0x75faf114eafb1BDbe2F0316DF893fd58CE46AA4d",
          "topics": [
            "0xddf252ad1be2c89b69c2b068fc378daa952ba7f163c4a11628f55a4df523b3ef",
            "0x000000000000000000000000cdcc5029896492a95a1fe4de47b562a8c662a799",
            "0x000000000000000000000000e00e46e0061bf52c503ef7189fb9499ab54e31c8"
          ],
          "data": "0x00000000000000000000000000000000000000000000000000000000001e8480",
          "blockHash": "0xe1c27941b844b711153e746100bea3630350009eb807f8e2f3cd658f8800d68e",
          "blockNumber": "0x9acf418",
          "transactionHash": "0xbf1d5b2ca5ca0996ac192e824a5e6b1ec0def7a123d731d4575c186b3d9822a3",
          "transactionIndex": "0x3",
          "logIndex": "0x3",
          "removed": false
        },
        {
          "address": "0xe00e46e0061bF52c503ef7189fb9499ab54e31c8",
          "topics": [
            "0xdf761661d51ab4147355430c8891e0dc7406b6aece4d2b564ccd87e0baa6dfd9",
            "0x000000000000000000000000cdcc5029896492a95a1fe4de47b562a8c662a799"
          ],
          "data": "0x00000000000000000000000000000000000000000000000000000000001e8480000000000000000000000000000000000000000000000000000000006848fd4c",
          "blockHash": "0xe1c27941b844b711153e746100bea3630350009eb807f8e2f3cd658f8800d68e",
          "blockNumber": "0x9acf418",
          "transactionHash": "0xbf1d5b2ca5ca0996ac192e824a5e6b1ec0def7a123d731d4575c186b3d9822a3",
          "transactionIndex": "0x3",
          "logIndex": "0x4",
          "removed": false
        }
      ],
      "logsBloom": "0x00000000040000000000000000000000800000000000000000000000000000000000080000000000000200000004000000000000000000000000000000000000800000000000000000000008000000000010000000000001000000000000000000000000000000000000000000800000000000000000000000000010000000000000000000000000000040000000000000000000000000000000000000000000000000000000000000000000000000000000000000000001000000000000000000000002000000000000000000000000000000000000000000000000000000000000000000000000000000000000001000000000000000000100000001000004",
      "type": "0x2",
      "transactionHash": "0xbf1d5b2ca5ca0996ac192e824a5e6b1ec0def7a123d731d4575c186b3d9822a3",
      "transactionIndex": "0x3",
      "blockHash": "0xe1c27941b844b711153e746100bea3630350009eb807f8e2f3cd658f8800d68e",
      "blockNumber": "0x9acf418",
      "gasUsed": "0x11a84",
      "effectiveGasPrice": "0x5f5e100",
      "from": "0xCDCc5029896492A95a1Fe4De47b562a8C662A799",
      "to": "0xe00e46e0061bF52c503ef7189fb9499ab54e31c8",
      "contractAddress": null,
      "gasUsedForL1": "0x0",
      "l1BlockNumber": "0x820c3e",
      "timeboosted": false
    }
  ],
  "libraries": [],
  "pending": [],
  "returns": {},
  "timestamp": 1749613901,
  "chain": 421614,
  "commit": "a79f45d"
}